:100000000C9446000C9465000C9465000C946500FB
:100010000C9465000C9465000C9465000C946500CC
:100020000C9465000C9465000C9465000C946500BC
:100030000C9465000C9465000C9465000C946500AC
:100040000C9465000C9465000C9465000C9465009C
:100050000C9465000C9465000C9465000C9465008C
:100060000C9465000C9465000C9465000C9465007C
:100070000C9465000C9465000C9465000C9465006C
:100080000C9465000C9465000C94650011241FBE4F
:10009000CFEFD0E1DEBFCDBF11E0A0E0B1E0E8E0FE
:1000A000F1E000E00BBF02C007900D92A030B10755
:1000B000D9F711E0A0E0B1E001C01D92A030B10776
:1000C000E1F70E9467000C9482000C9400008FEF0F
:1000D00084BB1ABA81E08BBB41E028EC30E0C899C0
:1000E000FECF45BB88EE93E0F9013197F1F7019718
:1000F000D9F715BA88EE93E0F9013197F1F7019736
:08010000D9F7EDCFF894FFCF11
:00000001FF
